:10000000A401F9280408930086120612061283162A
:10001000861206120612F030860583121308A41801
:100020002F283A308D0098309520333092004420AC
:1000300013308D0088309520442064309420442073
:100040006430942022309200442028302E200C303E
:100050002E2006302E20A41413082F2824149200DA
:10006000241C3D280612033C031C42284220073072
:100070008D00D0309520031408002414FE3C031991
:10008000F4280616920E241C24108616F0308605DD
:1000900012080F3986048612920E24184428323032
:1000A000942003140800A51315080319A51705309B
:1000B000940027308F001030692003308F00E83023
:1000C00069208F01643069208F010A30692010088F
:1000D00070288E0011088D0010088C00D3200C08A9
:1000E0008C0094030319A513150803197A28140228
:1000F000031808000C08031DA513A51B0800303EBB
:10010000EF288001840AFF3E031D8128F4288F0117
:100110008E00FF308E07031C8F07031CF42803306A
:100120008D00DF30952089288D01E83E8C008D09F7
:10013000FC30031C9E288C0703189B288C07640046
:100140008D0F9B280C18A4288C1CA8280000A82818
:1001500008008D018F018E000230B8288D018F01BB
:100160008E000130B8288D018F018E000430B82830
:1001700094000F080D02031DBF280E080C02043066
:1001800003180130031902301405031DFF30F42851
:100190000038031DFF300405031DFF30F42804045C
:1001A000031DFF30F42891019001103092000D0DD5
:1001B000900D910D0E0890020F08031C0F0F910275
:1001C0000318E9280E0890070F0803180F0F91076E
:1001D00003108C0D8D0D920BD7280C08F428840089
:1001E0001D088A001C088200831303138312640015
:1001F0000800831605148514051585150613861346
:100200000C3084004430831281208501860106135E
:10021000FE300320013003204430032061300320EE
:10022000643003206F300320533003206F300320ED
:100230006630032074300320203003203230032046
:1002400030300320303003203930032020300320A9
:10025000FE300320C03003203E3003204630032010
:100260006F300320743003206F30032020300320D0
:1002700074300320613003206A3003206D30032086
:1002800065300320723003203C30032005308F009E
:10029000DC3088204B2164008519532901308F0000
:1002A000F4308820B50A35088C000430AE209E005A
:1002B00035088C000130B320A0001E0884002008FF
:1002C000CF20A000A10064002008210403196A299E
:1002D0000130B50035088C000130A9209E0035089A
:1002E0008C000230A920A0001E0884002008CF2026
:1002F000A000A10035088C000330A920A20020082E
:10030000210484002208CF20A200A3006400220858
:1003100023040319002A64003508013C031DB22997
:1003200064000518962964308720B10A6400851896
:100330009C2964308720B10331088C001730AE202F
:100340009E0031088C000030B320A0001E088400FD
:100350002008CF20A000A100640020082104031978
:10036000B229B10164003508023C031DD92964009B
:100370000518BD2964308720AE0A64008518C3299A
:1003800064308720AE032E088C003B30AE209E00E8
:100390002E088C000030B320A0001E088400200826
:1003A000CF20A000A1006400200821040319D9294E
:1003B000AE0164003508033C031D002A64000518E3
:1003C000E42964308720B30A64008518EA29643080
:1003D0008720B30333088C003B30AE209E003308E7
:1003E0008C000030B320A0001E0884002008CF201D
:1003F000A000A1006400200821040319002AB30111
:10040000643087200030051901308C000030A920AD
:100410009E0035088C000430A920A0001E0884002E
:100420002008C820A000A1006400200821040319AE
:10043000222A02308F0026308820B201AF01B40199
:10044000B601AE2264003508013C031D2A2A68303B
:10045000AA00AB0164003508023C031D322A6D304E
:10046000AA00AB0164003508033C031D3A2A73302F
:10047000AA00AB0164003508043C031D422A4F303A
:10048000AA00AB0164003508013C031D4A2A68300C
:10049000AC00AD0164003508023C031D522A6D30EA
:1004A000AC00AD0164003508033C031D5A2A7330CB
:1004B000AC00AD0164003508043C031D622A4B30DA
:1004C000AC00AD01FE30032001300320503003208A
:1004D0006F30032064300320653003207330032025
:1004E000693003202030032076300320723003204F
:1004F000653003206D300320653003203A3003203F
:1005000020300320FE300320C03003203E30032083
:100510000230950031089000910102309C009D014D
:1005200053203A300320023095002E0890009101AC
:1005300002309C009D0153203A3003200230950088
:1005400033089000910102309C009D01532020301F
:1005500003202A0803202C0803204B29B001640043
:10056000623030020318C42A0A308720640005185C
:10057000BA2A912364008518BE2A9823640085193D
:10058000C22A4D23B00FAF2A64003608003C031D79
:10059000DA2A0617B40A64003C303402031CD22A5B
:1005A000AF0AB40164003C302F02031CD92AB20AFE
:1005B000AF01DB2A061333088C003408A9209E0003
:1005C0002E088C002F08A920A0001E0884002008F7
:1005D000C820A000A10031088C003208A920A20088
:1005E0002008210484002208C820A200A30064007F
:1005F000220823040319FD2A4D23FE300320013075
:1006000003204F3003207330032076300320653001
:100610000320743003206C3003206A3003206130E3
:10062000032076300320613003206E3003206A30CF
:100630000320653003203A30032020300320FE30B1
:100640000320C0300320203003202030032020303E
:1006500003202A30032002309500320890009101D7
:1006600002309C009D0153203A3003200230950057
:100670002F089000910102309C009D0153203A30D8
:1006800003200230950034089000910102309C0054
:100690009D0153202A300320AE2A06136400051959
:1006A000562B02308F00263088204B216430872063
:1006B000FE300320013003205A3003206130032034
:1006C000763003207230032073300320653003201E
:1006D0006E3003206F3003202130032020300320B0
:1006E000FE300320C030032050300320723003203E
:1006F00069300320743003206930032073300320F5
:100700006E300320693003207430032065300320ED
:100710002030032053300320453003205430032081
:100720004D2B01308F00903088200130B60008003A
:1007300001308F0090308820B601080063009E2BA6
:02400E00F23F7F
:00000001FF
