:10000000A201842991019000A31727308F0010309E
:10001000152003308F00E83015208F016430152043
:100020008F010A301520100820288E0011088D003D
:1000300010088C0048210C08031DA313A31B080003
:10004000303E2328040893008612061206128316F7
:10005000861206120612F030860583121308A218C3
:100060004F283A308D0098300F21333092006420B1
:1000700013308D0088300F21642064300E216420FD
:1000800064300E2122309200642028304E200C3043
:100090004E2006304E20A21413084F28221492003E
:1000A000221C5D280612033C031C622862200730D4
:1000B0008D00D0300F21031408002214FE3C0319D8
:1000C0007F290616920E221C22108616F030860515
:1000D00012080F3986048612920E221864283230D4
:1000E0000E21031408000830231901308F008E01FF
:1000F000260884002408E9202408800484130005CD
:10010000FF3E231D8E0C23198E0D32300E218F0BD6
:100110007A280E0803147F298E0008302319013035
:100120008F008E0C260884002408E9202408031878
:1001300080043C300E21240880048F0B9128031486
:100140007F29A31C7F29A728A300231C7F29260819
:1001500084002408E92001308D00F4300F212408A8
:10016000800401308D00F4300F29150803197F2910
:100170007A219503B528A31315080319A317053091
:10018000940027308F001030D12003308F00E830EA
:10019000D1208F016430D1208F010A30D120100886
:1001A000D8288E0011088D0010088C0048210C08FA
:1001B0008C0094030319A31315080319E2281402F1
:1001C000031808000C08031DA313A31B0800303EEE
:1001D0007A29FF3A8005EC28841780057F29890059
:1001E00083160814831208087F29880083160815CF
:1001F00055308900AA30890088148818FD28081114
:100200007F298F018E00FF308E07031C8F07031C90
:100210007F2903308D00DF300F2103298D01E83E57
:100220008C008D09FC30031C18298C070318152934
:100230008C0764008D0F15290C181E298C1C22298F
:1002400000002229080003108D0C8C0CFF3E0318BF
:1002500023290C087F298F018E00033033298F0159
:100260008E000430332994000F080D02031D3A2933
:100270000E080C0204300318013003190230140573
:10028000031DFF307F290038031DFF30FF3A7F290F
:1002900091019001103092000D0D900D910D0E08FE
:1002A00090020F08031C0F0F910203185E290E081D
:1002B00090070F0803180F0F910703108C0D8D0D79
:1002C000920B4C290C087F29103094008D018C0171
:1002D000930C920C031C72290E088C070F0803184C
:1002E0000F0F8D078D0C8C0C910C900C940B6829C2
:1002F00010087F2984001D088A001C0882008313CF
:10030000031383126400080083160515051685156E
:100310000613861301308312EF20AF000330EF2065
:10032000B00064003008FF3C031D9729B001640051
:100330002F08FF3C031D9D29AF0185018601643014
:100340000121FE3023200130232044302320693056
:100350002320673023202E30232054302320653083
:100360002320723023206D3023206F3023206D3006
:100370002320653023207430232061302320723005
:100380002320FE302320C03023205630232031305C
:1003900023202E30232030302320203023202030F3
:1003A000232044302320613023206D302320693006
:1003B0002320723023202D30232032302320303070
:1003C00023203030232038302320203023202030B9
:1003D00023202030232005308F00DC300221F02143
:1003E00064008519F429AF0A640064302F02031CED
:1003F000FA29AF012F0843219E0064001E08003C2B
:10040000031D062A6400051A062AAF03013089007D
:100410002F08F520FE3023200130232041302320F7
:100420006C30232061302320723023206D30232054
:100430006930232072302320613023206E30232046
:100440006A30232065302320203023206E30232083
:10045000613023203A302320FE302320C030232077
:100460002030232020302320203023202030232040
:1004700020302320203023202F080220DF302320AB
:100480004330232064300121640005194A2A3230A8
:1004900001214D2264300121F0290530A6000230EF
:1004A000A4000130A420CC308C2044308C20A1202A
:1004B0000530A6000230A4000430A4207320AD0053
:1004C000A12064002D08003C0319582A0530A6001D
:1004D0000230A4000130A420CC308C20BE308C200F
:1004E000A1200530A6000230A4000030A420732013
:1004F000AA007320AB000430950073309C009D016E
:10050000B5207320AD007320AC00A12003102B0C8C
:100510009F002A0C9E001E0892001F089300643062
:100520008E008F0164219E0011089F0019309E02E9
:100530000030031C013E9F022D082C02A000A101E7
:10054000031CA103200892002108930064308E0050
:100550008F016421A0001108A10020088C0021084F
:100560008D002C088E008F014821A0000D08A100ED
:100570001E082007AA001F080318013E2107AB0030
:100580002A088C002B088D0064308E008F014821D2
:10059000A8000D08A90064008519D72A6400300856
:1005A000003C031DD62A0130B000D72AB0016400F8
:1005B0000519DD2A64300121F02164003008013C76
:1005C000031D052B28088C0029088D002F082F21DA
:1005D000031DEF2A0617831606138312F32A061348
:1005E00083160613831228088C0029088D002F0813
:1005F0002B21031D002B8617831686138312042BD1
:1006000086138316861383120D2B06138316061387
:1006100083128613831686138312033089003008F1
:10062000F520FE302320013023203E30232053309C
:10063000232065302320743023203A3023202F08D4
:100640000220DF302320433023202030232020309D
:1006500023202030232050302320723023203A30B2
:10066000232030080220FE302320C03023205430C5
:100670002320653023206D302320703023203A3032
:10068000232095012A088C002B088D0064308E00F1
:100690008F0148219E000D089F001E0890001F0832
:1006A000910022309C009D01BB202E302320013080
:1006B00095002A0890002B08910022309C009D0193
:1006C000BB20DF302320433023204D2A6300662BDC
:02400E00F23F7F
:00000001FF
