:020000040000FA
:100000006229083033190130A300A20136088400A8
:100010003408DE20340880045F2184130005FF3E8D
:10002000331DA20C3319A20D3230F120A30B082886
:10003000220803145D29A200083033190130A300FF
:10004000A20C360884003408DE203408031880042B
:100050003730F12034088004A30B202803145D29D5
:10006000B31C5D293628B300331C5D293608840093
:100070003408DE200130A100E030F2203408800492
:100080000130A100E030F22864005B20031844280E
:100090009C20A8010830A3009D205B200318A80A1B
:1000A000AB1EA801A20CA30B4C28AB1AA2139D20D7
:1000B00003142208080036088400340884178004DA
:1000C000841300052B1B3406FF3E08000408A6001D
:1000D000360884008030B3050830A70003100318E9
:1000E000B30A8220A60CA70B6F280000AB1A330CB2
:1000F00082206021031482202F08A3002E08E5200F
:1001000003145D298413AB1F9128000834042B1FAE
:1001100034068000841700083404031C3406800071
:100120009D2800083404031C34062B1B3406800071
:100130008417340980059D2833172B081F39FF3E8B
:10014000A1002A08F53E0318A10A331FF228331331
:10015000A0000310A10CA00C0310A10C200CF2288D
:10016000B31329080319B3170530A8002730A300DB
:100170001030C6200330A300E830C620A30164304D
:10018000C620A3010A30C6202408CD28A2002508D5
:10019000A1002408A00026212008A000A80303191C
:1001A000B31329080319D7282802031808002008C8
:1001B000031DB313B31B0800303E5829FF3A8005D6
:1001C000E128841780055D29A301A200FF30A20762
:1001D000031CA307031C5D290330A100DF30F220BC
:1001E000E628A101E83EA000A109FC30031CFB2881
:1001F000A0070318F828A0076400A10FF82820180A
:100200000129A01C05290000052908000310A10CE4
:10021000A00CFF3E0318062920085D29A200033028
:100220001629A20004301629A2000530A8002308D0
:100230002102031D1D292208200204300318013069
:10024000031902302805031DFF305D29A501A40113
:100250001030A600210DA40DA50D2208A40223082C
:10026000031C230FA50203183C292208A407230816
:100270000318230FA5070310A00DA10DA60B2A2913
:1002800020085D291030A800A101A001A70CA60C30
:10029000031C50292208A00723080318230FA107D5
:1002A000A10CA00CA50CA40CA80B462924085D29C0
:1002B000840031088A0030088200831303138312FC
:1002C0006400080083160F309F0007130616871777
:1002D000851685150516C83083128A01E4208A1117
:1002E0000A12772132308A01E4208A016F2907300F
:1002F000B6008030B4008C30AA000130AB008A0117
:100300004420543C8A110A12031D7F298A0144208B
:10031000433C8A110A12031D7F298A110A12C42143
:100320004608A0004708A1006430A200A3018A018A
:100330002621B9004608BA000730B6004030B400A4
:100340008C30AA000130AB00AE01AF0152088A0127
:1003500067200230A9003908A400A5016630B0006A
:10036000B1018A01B0202C308A0167200230A90037
:100370003A08A400A5016630B000B1018A01B0209E
:100380000A308A01672008000630B6001030B40039
:1003900001308A013320CC308A011B2044308A018D
:1003A0001B208A01302064008A110A12061ADA29F9
:1003B0008A01D3290630B6001030B40001308A011A
:1003C0003320CC308A011B20BE308A011B208A01D9
:1003D00030200630B6001030B40002308A013320DD
:1003E0008A010120C6008A010120C7008A0130204D
:1003F00064008A110A12C71F092A4609C00047096A
:10040000C10001304007C60041080318013EC70083
:100410004F14FF304605C00007304705C1004008B3
:10042000A0004108A10004308A010921C40021086C
:10043000C5000F304605C000C1014008A6004108B4
:10044000A7001930A200A3018A014221C00025089B
:10045000C1004008A0004108A10002308A01092122
:10046000BC002108BD004408A6004508A700643070
:10047000A200A3018A014221C0002508C100400852
:100480003C07C60041080318013E3D07C700640051
:100490008A110A124F1C582A4608103CC800470807
:1004A000031C013E273CC9004F108A110A12602A22
:1004B00010304607C80027300318013E4707C9001F
:1004C0001030A0002730A1004908A30048088A0185
:1004D00014218A110A12031D722A2030D2008A11B7
:1004E0000A12862A4808A0004908A1002730A30064
:1004F00010308A010E218A110A12031D842A2D3020
:10050000D2008A110A12862A2B30D2004808A00095
:100510004908A1002730A30010308A0111218A1157
:100520000A12031D9E2A10304802C6002730031C01
:10053000013E4902C7008A110A12A62A4808103C47
:10054000C6004908031C013E273CC70008006300A1
:040550008A01A72A4B
:02400E00F53F7C
:00000001FF
