:020000040000FA
:10000000B2017A293217321F3213A40029080310D3
:10001000031975292903031D1028321B1E20321FC6
:10002000202003187529A0002518831724088400B0
:10003000200880008313A40AA9030628B216B21E62
:10004000B212B2192728B215772003186528083094
:10005000A3008B20A20DA30B2928B21E702095208F
:100060009120B21A65206A202208031075293217E0
:10007000321F3213A40029080310031D4228321B2B
:100080006528752925188317240884000008831320
:10009000502003187529A40AA9033B28B216B21EE2
:1000A000B21232195828FE39B300321503107529DF
:1000B000321A6028A6003216772003186528260811
:1000C0007E2003186528B21E7529702095203211F4
:1000D0003212B2113608840034088417800476285E
:1000E00036088400340980058417800508006A20DA
:1000F0009520702091203308B2190138A2000830F1
:10010000A300A20D03186A20031C702095209120E3
:10011000A30B81286A209520360884003408000546
:10012000FF3E3708840035097328370884003508F6
:100130006D28A600360884000930A7000310A5200A
:10014000A60CA70B9F280314A5288413B31DB4285D
:1001500000083404331D340680008417000834047A
:10016000031C34068000BF2800083404031C340636
:10017000331934068000841734098005BF28003005
:100180008A00330D0639A000CC20A10000308A007F
:10019000200ACC2000004629D03E03188A0A82009B
:1001A0000134713403341134003438340C34D53410
:1001B0002C08A0002D08A1000130A200A3016400BA
:1001C0000621031CF328A20BDF28FF30A307031826
:1001D000DF28A007031CA107031C08003230A2007F
:1001E0000030A300DF282421A8010830A300252126
:1001F00006210318A80AAB1EA801A20CA30BF7281E
:10020000AB1AA21325210314220808003608840023
:10021000340884178004841300052B1B3406FF3E2A
:100220000800A40029080314031975297021031C70
:100230000800A000251883172408840020088000E7
:100240008313A40AA903122933172B081F39FF3E71
:10025000A1002A08F53E0318A10A331F46293313CB
:10026000A0000310A10CA00C0310A10C200C462927
:10027000A301A200FF30A207031CA307031C7529DA
:100280000330A100DF3046213A29A101E83EA00059
:10029000A109FC30031C4F29A00703184C29A00713
:1002A0006400A10F4C2920185529A01C59290000D1
:1002B000592908001030A800A101A001A70CA60C24
:1002C000031C68292208A00723080318230FA1078D
:1002D000A10CA00CA50CA40CA80B5E292408752960
:1002E000840031088A0030088200831303138312CC
:1002F0006400080083168113831203178113831689
:100300000313851005110510061386178615831231
:100310008514831685108312051183160511831227
:100320000510831605108312D60102308506831648
:10033000851006308312B6004030B400B30141305E
:100340009920543099200D3099200630B600803025
:10035000B4008C30AA000130AB00E830AC000330B0
:10036000AD00D820031C95294F3C031DB129D8208E
:10037000031C95294B3C031DB1290330A300E83031
:1003800039210630B6004030B400B3016130992005
:100390007430992026309920663099200D309920AC
:1003A0000130A300F4303921023085068316851010
:1003B00006308312B6004030B400B301613099209A
:1003C000743099202B309920693099207030992011
:1003D000723099203D309920323099203430992064
:1003E00030309920303099200D3099200130A30011
:1003F000F4303921023085068316851006308312C9
:10040000B6004030B400B3016130992074309920B7
:100410002B309920633099206C30992069309920D5
:10042000703099203D309920313099200D3099203D
:100430000130A300F43039210630B6004030B4005A
:10044000B3016130992074309920203099206530B3
:10045000992030309920203099202630992077300B
:100460009920303099200D3099200130A300F430CC
:10047000392185146400861D432A05118316051150
:1004800083124422442AE2220630B6008030B400AF
:100490008C30AA000130AB006430AC00AD01D82034
:1004A000031C442A2B3C031D4F2AD820031C442A3A
:1004B000333C031D4F2AD820031C442A383C031D1B
:1004C0004F2AD820031C442A313C031D4F2A0A30EE
:1004D000A900D830B000B101A50138301121031CAA
:1004E000442AD6010130A300F43039210630B60089
:1004F0004030B400B30141309920543099202B3062
:100500009920433099204830992055309920503017
:1005100099200D309920561A8514561E85105608BC
:10052000A600A7010930A200A3015A21D200250884
:10053000D30001305207D00053080318013ED10008
:10054000D60A0630B6001030B4000630B7002030AE
:10055000B500A030502051085020500850200A30DB
:10056000A900A5014430022064005608FF3C031D89
:10057000BA2A442A0130D70064000B30570203180E
:10058000D32A5708443E84000008D2005708383E5A
:1005900084000008D4006400520854020319D12AD0
:1005A0008B2AD70FBC2A6400051CDB2A0510831692
:1005B00005108312DF2A0514831605108312643098
:1005C0003821442AD001D1018510831685100630C8
:1005D0008312B6001030B4000630B7002030B500EA
:1005E000A030502051085020500850201E20D60026
:1005F00064005608FF3C031DFE2AD601051583162C
:10060000051106308312B6008030B4008C30AA0089
:100610000130AB006430AC00AD01D820031CFE2AD1
:100620002B3C031D0D2BD820031CFE2A333C031D3D
:100630000D2BD820031CFE2A383C031D0D2BD8207F
:10064000031CFE2A313C031D0D2B0A30A900D830B3
:10065000B000B101A50138301121031CFE2A05119B
:100660008316051183125608A600A7010930A200BF
:10067000A3015A21D2002508D30001305207D0002F
:1006800053080318013ED1000630B6001030B40004
:100690000630B7002030B500A0305020510850205F
:1006A000500850200A30A900A50138303720013009
:1006B000A300F43039210630B6004030B400B30155
:1006C00041309920543099202B3099204330992083
:1006D0004830992055309920503099200D3099207C
:1006E000D60AD001D1010630B6001030B400063071
:1006F000B7002030B500A0305020510850205008DD
:10070000502056084E200130A300F4303921FE2A33
:100710000630B6004030B400B30141309920543067
:1007200099202B309920433099204D309920473023
:100730009920463099203D309920313099200D3054
:1007400099200B30A300B83039210630B600403074
:10075000B400B30141309920543099202B309920B6
:10076000433099204D3099204730992053309920BB
:100770003D3099202B309920333099203830992002
:1007800031309920363099203430992034309920F6
:1007900031309920353099203130992034309920EA
:1007A00035309920373099200D3099200B30A30037
:1007B000B83039210630B6004030B400B3015330B0
:1007C000992074309920613099206E3099206A30D8
:1007D0009920653099202030992072309920653019
:1007E00099206C309920653099206A3099206130C9
:1007F0009920203099206A309920653099203A302C
:100800009920203099206400051C1C2C0630B6006D
:100810004030B400B3010D3099205530992050304C
:100820009920413099204C3099204A309920453008
:1008300099204E3099202F2C0630B6004030B4005D
:10084000B3010D309920553099204730992041301F
:10085000992053309920453099204E309920063008
:10086000B6004030B400B3011A3099200B30A30019
:0A087000B8303921080063003B2C6A
:02400E00653F0C
:00000001FF
