:020000040000FA
:04000000B401232AFA
:08000800F000030E8301BD00AE
:100010000A08B80002308A00A22AB416B41EB4122C
:10002000B4191628B4154F2003183D280830A30032
:100030006320A20DA30B1828B41E48206D20692050
:10004000B41A3D204220220803101E2AB416B41E02
:10005000B41234193028FE39B600341503101E2AA4
:10006000341A3828A60034164F2003183D282608D5
:10007000562003183D28B41E1E2A48206D20341136
:100080003412B4113B0884003908841780044E28C8
:100090003B08840039098005841780050800422048
:1000A0006D20482069203608B4190138A2000830B4
:1000B000A300A20D03184220031C48206D206920D4
:1000C000A30B592842206D203B0884003908000505
:1000D000FF3E3C0884003A094B283C0884003A085B
:1000E00045280408A70007128712871283160712F3
:1000F00087128712F030870583122708B4189E28CC
:100100003A30A100FC30B3213330A600B3201030C8
:10011000A1006830B321B3206430B221B320223073
:10012000A600B32028309D200C309D2001309D205A
:1001300006309D20B41427089E283414A600341CD1
:10014000AC288712033C031CB128B1200730A10062
:10015000D030B321031408003414FE3C03191E2AC6
:100160008716A60E341C34100716F03087052608B3
:100170000F3987040712A60E3418B3282830B2218D
:1001800003140800083036190130A300A2013B080F
:10019000840039089F213908800420228413000537
:1001A000FF3E361DA20C3619A20D3230B221A30B30
:1001B000C928220803141E2AA2000830361901306B
:1001C000A300A20C3B08840039089F2139080318BA
:1001D00080043730B22139088004A30BE1280314CE
:1001E0001E2AB61C1E2AF728B600361C1E2A3B08FB
:1001F000840039089F210130A100E030B321390883
:1002000080040130A100E030B32964001C210318F0
:1002100005295D21A8010830A3005E211C210318D7
:10022000A80AAB1EA801A20CA30B0D29AB1AA2139E
:100230005E210314220808003B0884003908841753
:100240008004841300052B1B3906FF3E08000408B8
:10025000A6003B0884008030B6050830A7000310D4
:100260000318B60A4321A60CA70B30290000AB1ACD
:10027000360C43212122031443212F08A3002E080A
:10028000A62103141E2A8413AB1F52290008390427
:100290002B1F39068000841700083904031C390617
:1002A00080005E2900083904031C39062B1B39061F
:1002B00080008417390980055E2936172B081F39FD
:1002C000FF3EA1002A08F53E0318A10A361FB329F4
:1002D0003613A0000310A10CA00C0310A10C200CDD
:1002E000B329B61329080319B6170530A80027301B
:1002F000A300103087210330A300E8308721A30139
:1003000064308721A3010A30872124088E29A200A6
:100310002508A1002408A000E7212008A000A803C8
:100320000319B6132908031998292802031808008D
:100330002008031DB613B61B0800303E192AFF3AE9
:100340008005A229841780051E2AA301A200FF3080
:10035000A207031CA307031C1E2A0330A100DF30E1
:10036000B321A729A101E83EA000A109FC30031C8C
:10037000BC29A0070318B929A0076400A10FB92957
:100380002018C229A01CC6290000C6290800031095
:10039000A10CA00CFF3E0318C72920081E2AA200AA
:1003A0000330D729A2000430D729A2000530A800C5
:1003B00023082102031DDE2922082002043003182D
:1003C0000130031902302805031DFF301E2AA50144
:1003D000A4011030A600210DA40DA50D2208A40231
:1003E0002308031C230FA5020318FD292208A407D4
:1003F00023080318230FA5070310A00DA10DA60BBA
:10040000EB2920081E2A1030A800A101A001A70C8A
:10041000A60C031C112A2208A00723080318230F87
:10042000A107A10CA00CA50CA40CA80B072A24085A
:100430001E2A840031088A003008820083130313C7
:100440008312640008008A110A129F2A2008CE0035
:100450002108CF002208D0002308D1002408D200B0
:100460002508D3002608D4002708D5002808D60080
:100470002908D7002A08D8002B08D9002C08DA0050
:100480002D08DB002E08DC002F08DD003008DE0020
:100490003108DF003408EF003608F1003908F500B4
:1004A0003A08F6003B08F7003C08F8006008BE0078
:1004B0006108BF006208C0006308C100B7143308B8
:1004C0008A00320882004E08A0004F08A1005008A0
:1004D000A2005108A3005208A4005308A500540824
:1004E000A6005508A7005608A8005708A9005808F4
:1004F000AA005908AB005A08AC005B08AD005C08C4
:10050000AE005D08AF005E08B0005F08B1006F0884
:10051000B4007108B6007508B9007608BA0077080B
:10052000BB007808BC003E08E0003F08E10040083E
:10053000E2004108E300B7108A110A12C12A8A11A9
:100540000A12CB2A0408B500B71083160C1CBB2A6C
:1005500083120C1CBB2AB718B32AB330B200023086
:10056000B3008A01262ABA30B2000230B3008A11E1
:100570000A12642C0C1083120313B71CC12A8A01BF
:10058000632A83013508840038088A003D0E830001
:10059000F00E700E09000B178B17313090000C1005
:1005A00083160C140713061687178516851505166E
:1005B0000F309F00C83083128A01A521FE308A01C6
:1005C000722001308A0172208A110A123D248A1198
:1005D0000A12BD24FE308A01722002308A01722084
:1005E00054308A01722065308A0172206D308A0190
:1005F000722070308A0172207C088A0172200230D9
:10060000A9006808A0006908A1006430A200A30145
:100610008A01E721E0002108E1006008A4006108E8
:10062000A5007130B000B1018A0171210230A9002A
:100630006808A4006908A5007130B000B1018A0102
:100640007121DF308A01722043308A01722020300C
:100650008A01722020308A01722020308A017220A3
:1006600020308A01722020308A01722020308A01D5
:10067000722020308A01722020308A0172202030BE
:100680008A01722020308A01722020308A01722073
:1006900020308A01722020308A017220FE308A01C7
:1006A0007220C0308A01722054308A017220693071
:1006B0008A0172206D308A01722065308A017220B1
:1006C0003A308A01722020308A0172200230A9005B
:1006D0006D08A400A5017130B000B1018A0171213B
:1006E0003A308A0172200230A9006C08A400A501EA
:1006F0007130B000B1018A0171213A308A01722053
:100700000230A9006E08A400A5017130B000B1014B
:100710008A01712120308A01722020308A017220E2
:1007200020308A01722020308A01722020308A0114
:10073000722020308A01722020308A0172202030FD
:100740008A01722020308A01722020308A017220B2
:1007500020308A01722020308A01722020308A01E4
:10076000722020308A01722020308A0172203230BB
:100770008A01A5218A01E72A0630BB000430B900AE
:100780000630BC000830BA00A2308A0128200230AE
:100790008A0128208A010F20FB008A010F20F30024
:1007A0008A010D20F200F313F2137213F030730577
:1007B000E000E1016008A0006108A10004308A01A6
:1007C000CA21E0002108E1006008A6006108A70036
:1007D0000A30A200A3018A010322E0002508E100FB
:1007E0000F307305E200E30160086207EC00F030AF
:1007F0007205E000E1016008A0006108A10004307A
:100800008A01CA21E0002108E1006008A600610811
:10081000A7000A30A200A3018A010322E0002508F4
:10082000E1000F307205E200E30160086207ED00AD
:10083000F0307B05E000E1016008A0006108A10044
:1008400004308A01CA21E0002108E1006008A60006
:100850006108A7000A30A200A3018A010322E00078
:100860002508E1000F307B05E200E3016008620724
:10087000EE000A308A01A52108000630BB000430D2
:10088000B9000630BC000830BA00A2308A01282026
:1008900002308A01282000308A01282000308A0195
:1008A000282000308A01282001308A0128200230C7
:1008B0008A01282001308A01282001308A0126205F
:1008C0000A308A01A52108000730BB008030B9003A
:1008D0008C30AA000130AB00A8018A0105218A11E1
:1008E0000A122818B92C543C8A110A12031D6C2CC8
:1008F000A8018A0105218A110A122818B92C433C43
:100900008A110A12031D6C2C6808A0006908A10056
:100910006430A200A3018A01E721C7006808C8006B
:100920000730BB004030B9008C30AA000130AB006A
:10093000AE01AF017C088A0128210230A9004708D6
:10094000A400A5012730B0000130B1008A01712157
:100950002C308A0128210230A9004808A400A501F2
:100960002730B0000130B1008A0171210A308A01BC
:10097000282133088A00320882000630BB0010307C
:10098000B90001308A01F420CC308A01DC204430E7
:100990008A01DC208A01F12064008A110A12061AF9
:1009A000D32C8A01CC2C0630BB001030B9000130AA
:1009B0008A01F420CC308A01DC20BE308A01DC20A0
:1009C0008A01F1200630BB001030B90002308A01E4
:1009D000F4208A01C220E8008A01C220E9008A01CD
:1009E000F12064008A110A12E91F032D6809E00052
:1009F0006909E10001306007E80061080318013E61
:100A0000E9000130FD00FF306805E00007306905AE
:100A1000E1006008A0006108A10004308A01CA2139
:100A2000E6002108E7000F306805E000E1016008FA
:100A3000A6006108A7001930A200A3018A010322C1
:100A4000E0002508E1006008A0006108A100023074
:100A50008A01CA21CA002108CB006608A6006708DF
:100A6000A7006430A200A3018A010322E000250848
:100A7000E10060084A07E80061080318013E4B07DF
:100A8000E90064007D08013C8A110A12031D542DFF
:100A90006808103CEA006908031C013E273CEB0093
:100AA000FD018A110A125C2D10306807EA00273018
:100AB0000318013E6907EB001030A0002730A100A9
:100AC0006B08A3006A088A01D5218A110A12031D46
:100AD0006E2D2030FC008A110A12822D6A08A000B7
:100AE0006B08A1002730A30010308A01CF218A11A2
:100AF0000A12031D802D2D30FC008A110A12822D4E
:100B00002B30FC006A08A0006B08A1002730A3006E
:100B100010308A01D2218A110A12031D9A2D103039
:100B20006A02E8002730031C013E6B02E9008A11CB
:100B30000A12A22D6A08103CE8006B08031C013E53
:0C0B4000273CE900080063008A01A32D97
:02400E00F53F7C
:00000001FF
