:10000000B2019428B216B21EB212B2190B28B21560
:100010004420031832280830A3005820A20DA30B57
:100020000D28B21E3D2062205E20B21A32203720F9
:10003000220803108F28B216B21EB21232192528D8
:10004000FE39B300321503108F28321A2D28A6006E
:10005000321644200318322826084B200318322871
:10006000B21E8F283D20622032113212B2113608A2
:100070008400340884178004432836088400340937
:100080008005841780050800372062203D205E200F
:100090003308B2190138A2000830A300A20D0318DA
:1000A0003720031C3D2062205E20A30B4E28372002
:1000B00062203608840034080005FF3E37088400BB
:1000C000350940283708840035083A28A301A200E2
:1000D000FF30A207031CA307031C8F280330A100D5
:1000E000DF3074206828A101E83EA000A109FC309F
:1000F000031C7D28A00703187A28A0070000A10F81
:100100007A2820188328A01C872800008728080048
:100110000038031DFF300405031DFF308F288313B3
:1001200003138312000008008316051183120511C2
:1001300007309900DC200530B6000130B4000530EE
:10014000B7000230B500D0301D2000301D20042043
:10015000C3000420C1000420C0000420BF0004200C
:10016000BE000420C2000220C5004008013C031D5F
:10017000FF30FF3AB8004108003C031DFF30FF3A52
:10018000BA00380884003A088820BA00BB00430847
:10019000003C031DFF30FF3ABC003A083B048400DA
:1001A0003C088820BC00BD003C083D040319D92848
:1001B00004210A3066209B280130C5000130C200AE
:1001C0000130BE000130BF00C001C301C1010530D4
:1001D000B6000130B4000530B7000230B500D030B1
:1001E0001D2000301D2043081D2041081D2040080F
:1001F0001D203F081D203E081D2042081D204508E7
:100200001B200A306620080005151330A300883033
:0C02100067200511DC20080063000C29A9
:02400E00FC3F75
:00000001FF
